{
  "address": "0xC307433517512F2DcD395063C18e5B338f954843",
  "abi": [
    {
      "inputs": [
        {
          "internalType": "uint256",
          "name": "updateInterval",
          "type": "uint256"
        },
        {
          "internalType": "address",
          "name": "_pricefeed",
          "type": "address"
        }
      ],
      "stateMutability": "nonpayable",
      "type": "constructor"
    },
    {
      "anonymous": false,
      "inputs": [
        {
          "indexed": true,
          "internalType": "address",
          "name": "owner",
          "type": "address"
        },
        {
          "indexed": true,
          "internalType": "address",
          "name": "approved",
          "type": "address"
        },
        {
          "indexed": true,
          "internalType": "uint256",
          "name": "tokenId",
          "type": "uint256"
        }
      ],
      "name": "Approval",
      "type": "event"
    },
    {
      "anonymous": false,
      "inputs": [
        {
          "indexed": true,
          "internalType": "address",
          "name": "owner",
          "type": "address"
        },
        {
          "indexed": true,
          "internalType": "address",
          "name": "operator",
          "type": "address"
        },
        {
          "indexed": false,
          "internalType": "bool",
          "name": "approved",
          "type": "bool"
        }
      ],
      "name": "ApprovalForAll",
      "type": "event"
    },
    {
      "anonymous": false,
      "inputs": [
        {
          "indexed": true,
          "internalType": "address",
          "name": "previousOwner",
          "type": "address"
        },
        {
          "indexed": true,
          "internalType": "address",
          "name": "newOwner",
          "type": "address"
        }
      ],
      "name": "OwnershipTransferred",
      "type": "event"
    },
    {
      "anonymous": false,
      "inputs": [
        {
          "indexed": false,
          "internalType": "string",
          "name": "marketTrend",
          "type": "string"
        }
      ],
      "name": "TokensUpdated",
      "type": "event"
    },
    {
      "anonymous": false,
      "inputs": [
        {
          "indexed": true,
          "internalType": "address",
          "name": "from",
          "type": "address"
        },
        {
          "indexed": true,
          "internalType": "address",
          "name": "to",
          "type": "address"
        },
        {
          "indexed": true,
          "internalType": "uint256",
          "name": "tokenId",
          "type": "uint256"
        }
      ],
      "name": "Transfer",
      "type": "event"
    },
    {
      "inputs": [
        {
          "internalType": "address",
          "name": "to",
          "type": "address"
        },
        {
          "internalType": "uint256",
          "name": "tokenId",
          "type": "uint256"
        }
      ],
      "name": "approve",
      "outputs": [],
      "stateMutability": "nonpayable",
      "type": "function"
    },
    {
      "inputs": [
        {
          "internalType": "address",
          "name": "owner",
          "type": "address"
        }
      ],
      "name": "balanceOf",
      "outputs": [
        {
          "internalType": "uint256",
          "name": "",
          "type": "uint256"
        }
      ],
      "stateMutability": "view",
      "type": "function"
    },
    {
      "inputs": [
        {
          "internalType": "bytes",
          "name": "",
          "type": "bytes"
        }
      ],
      "name": "checkUpkeep",
      "outputs": [
        {
          "internalType": "bool",
          "name": "upkeepNeeded",
          "type": "bool"
        },
        {
          "internalType": "bytes",
          "name": "",
          "type": "bytes"
        }
      ],
      "stateMutability": "view",
      "type": "function"
    },
    {
      "inputs": [],
      "name": "currentPrice",
      "outputs": [
        {
          "internalType": "int256",
          "name": "",
          "type": "int256"
        }
      ],
      "stateMutability": "view",
      "type": "function"
    },
    {
      "inputs": [
        {
          "internalType": "uint256",
          "name": "tokenId",
          "type": "uint256"
        }
      ],
      "name": "getApproved",
      "outputs": [
        {
          "internalType": "address",
          "name": "",
          "type": "address"
        }
      ],
      "stateMutability": "view",
      "type": "function"
    },
    {
      "inputs": [],
      "name": "getLatestPrice",
      "outputs": [
        {
          "internalType": "int256",
          "name": "",
          "type": "int256"
        }
      ],
      "stateMutability": "view",
      "type": "function"
    },
    {
      "inputs": [],
      "name": "interval",
      "outputs": [
        {
          "internalType": "uint256",
          "name": "",
          "type": "uint256"
        }
      ],
      "stateMutability": "view",
      "type": "function"
    },
    {
      "inputs": [
        {
          "internalType": "address",
          "name": "owner",
          "type": "address"
        },
        {
          "internalType": "address",
          "name": "operator",
          "type": "address"
        }
      ],
      "name": "isApprovedForAll",
      "outputs": [
        {
          "internalType": "bool",
          "name": "",
          "type": "bool"
        }
      ],
      "stateMutability": "view",
      "type": "function"
    },
    {
      "inputs": [],
      "name": "lastTimeStamp",
      "outputs": [
        {
          "internalType": "uint256",
          "name": "",
          "type": "uint256"
        }
      ],
      "stateMutability": "view",
      "type": "function"
    },
    {
      "inputs": [],
      "name": "name",
      "outputs": [
        {
          "internalType": "string",
          "name": "",
          "type": "string"
        }
      ],
      "stateMutability": "view",
      "type": "function"
    },
    {
      "inputs": [],
      "name": "owner",
      "outputs": [
        {
          "internalType": "address",
          "name": "",
          "type": "address"
        }
      ],
      "stateMutability": "view",
      "type": "function"
    },
    {
      "inputs": [
        {
          "internalType": "uint256",
          "name": "tokenId",
          "type": "uint256"
        }
      ],
      "name": "ownerOf",
      "outputs": [
        {
          "internalType": "address",
          "name": "",
          "type": "address"
        }
      ],
      "stateMutability": "view",
      "type": "function"
    },
    {
      "inputs": [
        {
          "internalType": "bytes",
          "name": "",
          "type": "bytes"
        }
      ],
      "name": "performUpkeep",
      "outputs": [],
      "stateMutability": "nonpayable",
      "type": "function"
    },
    {
      "inputs": [],
      "name": "pricefeed",
      "outputs": [
        {
          "internalType": "contract AggregatorV3Interface",
          "name": "",
          "type": "address"
        }
      ],
      "stateMutability": "view",
      "type": "function"
    },
    {
      "inputs": [],
      "name": "renounceOwnership",
      "outputs": [],
      "stateMutability": "nonpayable",
      "type": "function"
    },
    {
      "inputs": [
        {
          "internalType": "address",
          "name": "to",
          "type": "address"
        }
      ],
      "name": "safeMint",
      "outputs": [],
      "stateMutability": "nonpayable",
      "type": "function"
    },
    {
      "inputs": [
        {
          "internalType": "address",
          "name": "from",
          "type": "address"
        },
        {
          "internalType": "address",
          "name": "to",
          "type": "address"
        },
        {
          "internalType": "uint256",
          "name": "tokenId",
          "type": "uint256"
        }
      ],
      "name": "safeTransferFrom",
      "outputs": [],
      "stateMutability": "nonpayable",
      "type": "function"
    },
    {
      "inputs": [
        {
          "internalType": "address",
          "name": "from",
          "type": "address"
        },
        {
          "internalType": "address",
          "name": "to",
          "type": "address"
        },
        {
          "internalType": "uint256",
          "name": "tokenId",
          "type": "uint256"
        },
        {
          "internalType": "bytes",
          "name": "data",
          "type": "bytes"
        }
      ],
      "name": "safeTransferFrom",
      "outputs": [],
      "stateMutability": "nonpayable",
      "type": "function"
    },
    {
      "inputs": [
        {
          "internalType": "address",
          "name": "operator",
          "type": "address"
        },
        {
          "internalType": "bool",
          "name": "approved",
          "type": "bool"
        }
      ],
      "name": "setApprovalForAll",
      "outputs": [],
      "stateMutability": "nonpayable",
      "type": "function"
    },
    {
      "inputs": [
        {
          "internalType": "uint256",
          "name": "newInterval",
          "type": "uint256"
        }
      ],
      "name": "setInterval",
      "outputs": [],
      "stateMutability": "nonpayable",
      "type": "function"
    },
    {
      "inputs": [
        {
          "internalType": "address",
          "name": "newFeed",
          "type": "address"
        }
      ],
      "name": "setPriceFeed",
      "outputs": [],
      "stateMutability": "nonpayable",
      "type": "function"
    },
    {
      "inputs": [
        {
          "internalType": "bytes4",
          "name": "interfaceId",
          "type": "bytes4"
        }
      ],
      "name": "supportsInterface",
      "outputs": [
        {
          "internalType": "bool",
          "name": "",
          "type": "bool"
        }
      ],
      "stateMutability": "view",
      "type": "function"
    },
    {
      "inputs": [],
      "name": "symbol",
      "outputs": [
        {
          "internalType": "string",
          "name": "",
          "type": "string"
        }
      ],
      "stateMutability": "view",
      "type": "function"
    },
    {
      "inputs": [
        {
          "internalType": "uint256",
          "name": "index",
          "type": "uint256"
        }
      ],
      "name": "tokenByIndex",
      "outputs": [
        {
          "internalType": "uint256",
          "name": "",
          "type": "uint256"
        }
      ],
      "stateMutability": "view",
      "type": "function"
    },
    {
      "inputs": [
        {
          "internalType": "address",
          "name": "owner",
          "type": "address"
        },
        {
          "internalType": "uint256",
          "name": "index",
          "type": "uint256"
        }
      ],
      "name": "tokenOfOwnerByIndex",
      "outputs": [
        {
          "internalType": "uint256",
          "name": "",
          "type": "uint256"
        }
      ],
      "stateMutability": "view",
      "type": "function"
    },
    {
      "inputs": [
        {
          "internalType": "uint256",
          "name": "tokenId",
          "type": "uint256"
        }
      ],
      "name": "tokenURI",
      "outputs": [
        {
          "internalType": "string",
          "name": "",
          "type": "string"
        }
      ],
      "stateMutability": "view",
      "type": "function"
    },
    {
      "inputs": [],
      "name": "totalSupply",
      "outputs": [
        {
          "internalType": "uint256",
          "name": "",
          "type": "uint256"
        }
      ],
      "stateMutability": "view",
      "type": "function"
    },
    {
      "inputs": [
        {
          "internalType": "address",
          "name": "from",
          "type": "address"
        },
        {
          "internalType": "address",
          "name": "to",
          "type": "address"
        },
        {
          "internalType": "uint256",
          "name": "tokenId",
          "type": "uint256"
        }
      ],
      "name": "transferFrom",
      "outputs": [],
      "stateMutability": "nonpayable",
      "type": "function"
    },
    {
      "inputs": [
        {
          "internalType": "address",
          "name": "newOwner",
          "type": "address"
        }
      ],
      "name": "transferOwnership",
      "outputs": [],
      "stateMutability": "nonpayable",
      "type": "function"
    }
  ],
  "transactionHash": "0x27254da35b0b42019c141900a3970cbe28d3124f5f0fd4088a588c84b58dd83e",
  "args": [
    10,
    "0xECe365B379E1dD183B20fc5f022230C044d51404"
  ],
  "numDeployments": 1,
  "solcInputHash": "45e170d2b751b1bc470a8a37a31a7bd3",
  "bytecode": "0x610160604052605c60e081815260809182919062002ec26101003981526020016040518060800160405280605c815260200162002fd8605c913981526020016040518060800160405280605d815260200162002e65605d913990526200006a906011906003620002b3565b506040805160e08101909152605d60608201818152829162002f7b608084013981526020016040518060800160405280605d815260200162003034605d913981526020016040518060800160405280605d815260200162002f1e605d91399052620000da906012906003620002b3565b50348015620000e857600080fd5b5060405162003091380380620030918339810160408190526200010b916200041c565b6040805180820182526009815268213ab636132132b0b960b91b6020808301918252835180850190945260048452634242544b60e01b908401528151919291620001589160009162000317565b5080516200016e90600190602084019062000317565b5050506200018b62000185620001c560201b60201c565b620001c9565b600e82905542600f55600d80546001600160a01b0319166001600160a01b038316179055620001b96200021b565b601055506200050a9050565b3390565b600b80546001600160a01b038381166001600160a01b0319831681179093556040519116919082907f8be0079c531659141344cd1fd0a4f28419497f9722a3daafe3b4186f6b6457e090600090a35050565b600080600d60009054906101000a90046001600160a01b03166001600160a01b031663feaf968c6040518163ffffffff1660e01b815260040160a06040518083038186803b1580156200026d57600080fd5b505afa15801562000282573d6000803e3d6000fd5b505050506040513d601f19601f82011682018060405250810190620002a8919062000478565b509195945050505050565b82805482825590600052602060002090810192821562000305579160200282015b82811115620003055782518051620002f491849160209091019062000317565b5091602001919060010190620002d4565b5062000313929150620003a2565b5090565b8280546200032590620004cd565b90600052602060002090601f01602090048101928262000349576000855562000394565b82601f106200036457805160ff191683800117855562000394565b8280016001018555821562000394579182015b828111156200039457825182559160200191906001019062000377565b5062000313929150620003c3565b8082111562000313576000620003b98282620003da565b50600101620003a2565b5b80821115620003135760008155600101620003c4565b508054620003e890620004cd565b6000825580601f10620003f9575050565b601f016020900490600052602060002090810190620004199190620003c3565b50565b600080604083850312156200043057600080fd5b825160208401519092506001600160a01b03811681146200045057600080fd5b809150509250929050565b80516001600160501b03811681146200047357600080fd5b919050565b600080600080600060a086880312156200049157600080fd5b6200049c866200045b565b9450602086015193506040860151925060608601519150620004c1608087016200045b565b90509295509295909350565b600181811c90821680620004e257607f821691505b602082108114156200050457634e487b7160e01b600052602260045260246000fd5b50919050565b61294b806200051a6000396000f3fe608060405234801561001057600080fd5b50600436106101cf5760003560e01c80636352211e11610104578063947a36fb116100a2578063b88d4fde11610071578063b88d4fde146103ac578063c87b56dd146103bf578063e985e9c5146103d2578063f2fde38b1461040e57600080fd5b8063947a36fb1461037f57806395d89b41146103885780639d1b464a14610390578063a22cb4651461039957600080fd5b8063715018a6116100de578063715018a61461034b578063724e78da146103535780638da5cb5b146103665780638e15f4731461037757600080fd5b80636352211e146103045780636e04ff0d1461031757806370a082311461033857600080fd5b80632f745c591161017157806342842e0e1161014b57806342842e0e146102b85780634585e33b146102cb5780634f6ccce7146102de578063590f2113146102f157600080fd5b80632f745c59146102895780633f3b3b271461029c57806340d097c3146102a557600080fd5b8063095ea7b3116101ad578063095ea7b31461023c57806318160ddd1461025157806322a900821461026357806323b872dd1461027657600080fd5b806301ffc9a7146101d457806306fdde03146101fc578063081812fc14610211575b600080fd5b6101e76101e2366004612335565b610421565b60405190151581526020015b60405180910390f35b610204610432565b6040516101f391906123aa565b61022461021f3660046123bd565b6104c4565b6040516001600160a01b0390911681526020016101f3565b61024f61024a3660046123f2565b6104eb565b005b6008545b6040519081526020016101f3565b61024f6102713660046123bd565b610622565b61024f61028436600461241c565b61062f565b6102556102973660046123f2565b6106b6565b610255600f5481565b61024f6102b3366004612458565b61075e565b61024f6102c636600461241c565b6108ae565b61024f6102d9366004612473565b6108c9565b6102556102ec3660046123bd565b610a6e565b600d54610224906001600160a01b031681565b6102246103123660046123bd565b610b12565b61032a610325366004612473565b610b77565b6040516101f39291906124e5565b610255610346366004612458565b610b96565b61024f610c30565b61024f610361366004612458565b610c44565b600b546001600160a01b0316610224565b610255610c7b565b610255600e5481565b610204610d0f565b61025560105481565b61024f6103a7366004612500565b610d1e565b61024f6103ba366004612552565b610d29565b6102046103cd3660046123bd565b610db7565b6101e76103e036600461262e565b6001600160a01b03918216600090815260056020908152604080832093909416825291909152205460ff1690565b61024f61041c366004612458565b610dc2565b600061042c82610e52565b92915050565b60606000805461044190612661565b80601f016020809104026020016040519081016040528092919081815260200182805461046d90612661565b80156104ba5780601f1061048f576101008083540402835291602001916104ba565b820191906000526020600020905b81548152906001019060200180831161049d57829003601f168201915b5050505050905090565b60006104cf82610ea8565b506000908152600460205260409020546001600160a01b031690565b60006104f682610b12565b9050806001600160a01b0316836001600160a01b031614156105855760405162461bcd60e51b815260206004820152602160248201527f4552433732313a20617070726f76616c20746f2063757272656e74206f776e6560448201527f720000000000000000000000000000000000000000000000000000000000000060648201526084015b60405180910390fd5b336001600160a01b03821614806105a157506105a181336103e0565b6106135760405162461bcd60e51b815260206004820152603e60248201527f4552433732313a20617070726f76652063616c6c6572206973206e6f7420746f60448201527f6b656e206f776e6572206e6f7220617070726f76656420666f7220616c6c0000606482015260840161057c565b61061d8383610f0c565b505050565b61062a610f87565b600e55565b6106393382610fe1565b6106ab5760405162461bcd60e51b815260206004820152602e60248201527f4552433732313a2063616c6c6572206973206e6f7420746f6b656e206f776e6560448201527f72206e6f7220617070726f766564000000000000000000000000000000000000606482015260840161057c565b61061d838383611060565b60006106c183610b96565b82106107355760405162461bcd60e51b815260206004820152602b60248201527f455243373231456e756d657261626c653a206f776e657220696e646578206f7560448201527f74206f6620626f756e6473000000000000000000000000000000000000000000606482015260840161057c565b506001600160a01b03919091166000908152600660209081526040808320938352929052205490565b6000610769600c5490565b9050610779600c80546001019055565b6107838282611245565b600060116000815481106107995761079961269c565b9060005260206000200180546107ae90612661565b80601f01602080910402602001604051908101604052809291908181526020018280546107da90612661565b80156108275780601f106107fc57610100808354040283529160200191610827565b820191906000526020600020905b81548152906001019060200180831161080a57829003601f168201915b50505050509050610838828261125f565b61061d6040518060400160405280601581526020017f444f4e45212121206d696e74656420746f6b656e200000000000000000000000815250836040518060400160405280601981526020017f20616e642061737369676e656420746f6b656e2075726c3a200000000000000081525084611308565b61061d83838360405180602001604052806000815250610d29565b600e54600f546108d990426126c8565b1115610a2c5742600f5560006108ed610c7b565b90506010548114156109375761061d6040518060400160405280601781526020017f4e4f204348414e4745202d3e2072657475726e696e672100000000000000000081525061137f565b6010548112156109a95761097f6040518060400160405280600d81526020017f49545320424541522054494d450000000000000000000000000000000000000081525061137f565b6109a4604051806040016040528060048152602001633132b0b960e11b8152506113f0565b610a25565b6109e76040518060400160405280600d81526020017f4954532042554c4c2054494d450000000000000000000000000000000000000081525061137f565b610a256040518060400160405280600481526020017f62756c6c000000000000000000000000000000000000000000000000000000008152506113f0565b6010555050565b610a6a6040518060400160405280601181526020017f20494e54455256414c204e4f542055502100000000000000000000000000000081525061137f565b5050565b6000610a7960085490565b8210610aed5760405162461bcd60e51b815260206004820152602c60248201527f455243373231456e756d657261626c653a20676c6f62616c20696e646578206f60448201527f7574206f6620626f756e64730000000000000000000000000000000000000000606482015260840161057c565b60088281548110610b0057610b0061269c565b90600052602060002001549050919050565b6000818152600260205260408120546001600160a01b03168061042c5760405162461bcd60e51b815260206004820152601860248201527f4552433732313a20696e76616c696420746f6b656e2049440000000000000000604482015260640161057c565b60006060600e54600f5442610b8c91906126c8565b1191509250929050565b60006001600160a01b038216610c145760405162461bcd60e51b815260206004820152602960248201527f4552433732313a2061646472657373207a65726f206973206e6f74206120766160448201527f6c6964206f776e65720000000000000000000000000000000000000000000000606482015260840161057c565b506001600160a01b031660009081526003602052604090205490565b610c38610f87565b610c426000611634565b565b610c4c610f87565b600d805473ffffffffffffffffffffffffffffffffffffffff19166001600160a01b0392909216919091179055565b600080600d60009054906101000a90046001600160a01b03166001600160a01b031663feaf968c6040518163ffffffff1660e01b815260040160a06040518083038186803b158015610ccc57600080fd5b505afa158015610ce0573d6000803e3d6000fd5b505050506040513d601f19601f82011682018060405250810190610d0491906126f9565b509195945050505050565b60606001805461044190612661565b610a6a338383611693565b610d333383610fe1565b610da55760405162461bcd60e51b815260206004820152602e60248201527f4552433732313a2063616c6c6572206973206e6f7420746f6b656e206f776e6560448201527f72206e6f7220617070726f766564000000000000000000000000000000000000606482015260840161057c565b610db184848484611780565b50505050565b606061042c82611809565b610dca610f87565b6001600160a01b038116610e465760405162461bcd60e51b815260206004820152602660248201527f4f776e61626c653a206e6577206f776e657220697320746865207a65726f206160448201527f6464726573730000000000000000000000000000000000000000000000000000606482015260840161057c565b610e4f81611634565b50565b60007fffffffff0000000000000000000000000000000000000000000000000000000082167f780e9d6300000000000000000000000000000000000000000000000000000000148061042c575061042c82611912565b6000818152600260205260409020546001600160a01b0316610e4f5760405162461bcd60e51b815260206004820152601860248201527f4552433732313a20696e76616c696420746f6b656e2049440000000000000000604482015260640161057c565b6000818152600460205260409020805473ffffffffffffffffffffffffffffffffffffffff19166001600160a01b0384169081179091558190610f4e82610b12565b6001600160a01b03167f8c5be1e5ebec7d5bd14f71427d1e84f3dd0314c0f7b2291e5b200ac8c7c3b92560405160405180910390a45050565b600b546001600160a01b03163314610c425760405162461bcd60e51b815260206004820181905260248201527f4f776e61626c653a2063616c6c6572206973206e6f7420746865206f776e6572604482015260640161057c565b600080610fed83610b12565b9050806001600160a01b0316846001600160a01b0316148061103457506001600160a01b0380821660009081526005602090815260408083209388168352929052205460ff165b806110585750836001600160a01b031661104d846104c4565b6001600160a01b0316145b949350505050565b826001600160a01b031661107382610b12565b6001600160a01b0316146110ef5760405162461bcd60e51b815260206004820152602560248201527f4552433732313a207472616e736665722066726f6d20696e636f72726563742060448201527f6f776e6572000000000000000000000000000000000000000000000000000000606482015260840161057c565b6001600160a01b03821661116a5760405162461bcd60e51b8152602060048201526024808201527f4552433732313a207472616e7366657220746f20746865207a65726f2061646460448201527f7265737300000000000000000000000000000000000000000000000000000000606482015260840161057c565b6111758383836119f5565b611180600082610f0c565b6001600160a01b03831660009081526003602052604081208054600192906111a99084906126c8565b90915550506001600160a01b03821660009081526003602052604081208054600192906111d7908490612749565b9091555050600081815260026020526040808220805473ffffffffffffffffffffffffffffffffffffffff19166001600160a01b0386811691821790925591518493918716917fddf252ad1be2c89b69c2b068fc378daa952ba7f163c4a11628f55a4df523b3ef91a4505050565b610a6a828260405180602001604052806000815250611a00565b6000828152600260205260409020546001600160a01b03166112e95760405162461bcd60e51b815260206004820152602e60248201527f45524337323155524953746f726167653a2055524920736574206f66206e6f6e60448201527f6578697374656e7420746f6b656e000000000000000000000000000000000000606482015260840161057c565b6000828152600a60209081526040909120825161061d9284019061226e565b610db1848484846040516024016113229493929190612761565b60408051601f198184030181529190526020810180517bffffffffffffffffffffffffffffffffffffffffffffffffffffffff167f5ab84e1f00000000000000000000000000000000000000000000000000000000179052611a89565b610e4f8160405160240161139391906123aa565b60408051601f198184030181529190526020810180517bffffffffffffffffffffffffffffffffffffffffffffffffffffffff167f41304fac00000000000000000000000000000000000000000000000000000000179052611a89565b611416604051806040016040528060048152602001633132b0b960e11b81525082611aaa565b1561154c576114776040518060400160405280601a81526020017f205550444154494e4720544f4b454e2055524953205749544820000000000000815250604051806040016040528060048152602001633132b0b960e11b81525083611b03565b60005b600c548110156115465761153481601260008154811061149c5761149c61269c565b9060005260206000200180546114b190612661565b80601f01602080910402602001604051908101604052809291908181526020018280546114dd90612661565b801561152a5780601f106114ff5761010080835404028352916020019161152a565b820191906000526020600020905b81548152906001019060200180831161150d57829003601f168201915b505050505061125f565b8061153e816127ab565b91505061147a565b506115fa565b6115c16040518060400160405280601a81526020017f205550444154494e4720544f4b454e20555249532057495448200000000000008152506040518060400160405280600481526020017f62756c6c0000000000000000000000000000000000000000000000000000000081525083611b03565b60005b600c548110156115f8576115e681601160008154811061149c5761149c61269c565b806115f0816127ab565b9150506115c4565b505b7f1cd67277dcd039d660f99499bdb46e90175d6160e3f9ab788a032b7a1ad2356a8160405161162991906123aa565b60405180910390a150565b600b80546001600160a01b0383811673ffffffffffffffffffffffffffffffffffffffff19831681179093556040519116919082907f8be0079c531659141344cd1fd0a4f28419497f9722a3daafe3b4186f6b6457e090600090a35050565b816001600160a01b0316836001600160a01b031614156116f55760405162461bcd60e51b815260206004820152601960248201527f4552433732313a20617070726f766520746f2063616c6c657200000000000000604482015260640161057c565b6001600160a01b0383811660008181526005602090815260408083209487168084529482529182902080547fffffffffffffffffffffffffffffffffffffffffffffffffffffffffffffff001686151590811790915591519182527f17307eab39ab6107e8899845ad3d59bd9653f200f220920489ca2b5937696c31910160405180910390a3505050565b61178b848484611060565b61179784848484611b78565b610db15760405162461bcd60e51b815260206004820152603260248201527f4552433732313a207472616e7366657220746f206e6f6e20455243373231526560448201527f63656976657220696d706c656d656e7465720000000000000000000000000000606482015260840161057c565b606061181482610ea8565b6000828152600a60205260408120805461182d90612661565b80601f016020809104026020016040519081016040528092919081815260200182805461185990612661565b80156118a65780601f1061187b576101008083540402835291602001916118a6565b820191906000526020600020905b81548152906001019060200180831161188957829003601f168201915b5050505050905060006118c460408051602081019091526000815290565b90508051600014156118d7575092915050565b8151156119095780826040516020016118f19291906127e4565b60405160208183030381529060405292505050919050565b61105884611d25565b60007fffffffff0000000000000000000000000000000000000000000000000000000082167f80ac58cd0000000000000000000000000000000000000000000000000000000014806119a557507fffffffff0000000000000000000000000000000000000000000000000000000082167f5b5e139f00000000000000000000000000000000000000000000000000000000145b8061042c57507f01ffc9a7000000000000000000000000000000000000000000000000000000007fffffffff0000000000000000000000000000000000000000000000000000000083161461042c565b61061d838383611d99565b611a0a8383611e51565b611a176000848484611b78565b61061d5760405162461bcd60e51b815260206004820152603260248201527f4552433732313a207472616e7366657220746f206e6f6e20455243373231526560448201527f63656976657220696d706c656d656e7465720000000000000000000000000000606482015260840161057c565b80516a636f6e736f6c652e6c6f67602083016000808483855afa5050505050565b600081604051602001611abd9190612813565b6040516020818303038152906040528051906020012083604051602001611ae49190612813565b6040516020818303038152906040528051906020012014905092915050565b61061d838383604051602401611b1b9392919061282f565b60408051601f198184030181529190526020810180517bffffffffffffffffffffffffffffffffffffffffffffffffffffffff167f2ced7cef00000000000000000000000000000000000000000000000000000000179052611a89565b60006001600160a01b0384163b15611d1a576040517f150b7a020000000000000000000000000000000000000000000000000000000081526001600160a01b0385169063150b7a0290611bd5903390899088908890600401612872565b602060405180830381600087803b158015611bef57600080fd5b505af1925050508015611c1f575060408051601f3d908101601f19168201909252611c1c918101906128a4565b60015b611ccf573d808015611c4d576040519150601f19603f3d011682016040523d82523d6000602084013e611c52565b606091505b508051611cc75760405162461bcd60e51b815260206004820152603260248201527f4552433732313a207472616e7366657220746f206e6f6e20455243373231526560448201527f63656976657220696d706c656d656e7465720000000000000000000000000000606482015260840161057c565b805181602001fd5b7fffffffff00000000000000000000000000000000000000000000000000000000167f150b7a0200000000000000000000000000000000000000000000000000000000149050611058565b506001949350505050565b6060611d3082610ea8565b6000611d4760408051602081019091526000815290565b90506000815111611d675760405180602001604052806000815250611d92565b80611d7184611fac565b604051602001611d829291906127e4565b6040516020818303038152906040525b9392505050565b6001600160a01b038316611df457611def81600880546000838152600960205260408120829055600182018355919091527ff3f7a9fe364faab93b216da50a3214154f22a0a2b415b23a84c8169e8b636ee30155565b611e17565b816001600160a01b0316836001600160a01b031614611e1757611e1783826120de565b6001600160a01b038216611e2e5761061d8161217b565b826001600160a01b0316826001600160a01b03161461061d5761061d828261222a565b6001600160a01b038216611ea75760405162461bcd60e51b815260206004820181905260248201527f4552433732313a206d696e7420746f20746865207a65726f2061646472657373604482015260640161057c565b6000818152600260205260409020546001600160a01b031615611f0c5760405162461bcd60e51b815260206004820152601c60248201527f4552433732313a20746f6b656e20616c7265616479206d696e74656400000000604482015260640161057c565b611f18600083836119f5565b6001600160a01b0382166000908152600360205260408120805460019290611f41908490612749565b9091555050600081815260026020526040808220805473ffffffffffffffffffffffffffffffffffffffff19166001600160a01b03861690811790915590518392907fddf252ad1be2c89b69c2b068fc378daa952ba7f163c4a11628f55a4df523b3ef908290a45050565b606081611fec57505060408051808201909152600181527f3000000000000000000000000000000000000000000000000000000000000000602082015290565b8160005b81156120165780612000816127ab565b915061200f9050600a836128d7565b9150611ff0565b60008167ffffffffffffffff8111156120315761203161253c565b6040519080825280601f01601f19166020018201604052801561205b576020820181803683370190505b5090505b8415611058576120706001836126c8565b915061207d600a866128eb565b612088906030612749565b60f81b81838151811061209d5761209d61269c565b60200101907effffffffffffffffffffffffffffffffffffffffffffffffffffffffffffff1916908160001a9053506120d7600a866128d7565b945061205f565b600060016120eb84610b96565b6120f591906126c8565b600083815260076020526040902054909150808214612148576001600160a01b03841660009081526006602090815260408083208584528252808320548484528184208190558352600790915290208190555b5060009182526007602090815260408084208490556001600160a01b039094168352600681528383209183525290812055565b60085460009061218d906001906126c8565b600083815260096020526040812054600880549394509092849081106121b5576121b561269c565b9060005260206000200154905080600883815481106121d6576121d661269c565b600091825260208083209091019290925582815260099091526040808220849055858252812055600880548061220e5761220e6128ff565b6001900381819060005260206000200160009055905550505050565b600061223583610b96565b6001600160a01b039093166000908152600660209081526040808320868452825280832085905593825260079052919091209190915550565b82805461227a90612661565b90600052602060002090601f01602090048101928261229c57600085556122e2565b82601f106122b557805160ff19168380011785556122e2565b828001600101855582156122e2579182015b828111156122e25782518255916020019190600101906122c7565b506122ee9291506122f2565b5090565b5b808211156122ee57600081556001016122f3565b7fffffffff0000000000000000000000000000000000000000000000000000000081168114610e4f57600080fd5b60006020828403121561234757600080fd5b8135611d9281612307565b60005b8381101561236d578181015183820152602001612355565b83811115610db15750506000910152565b60008151808452612396816020860160208601612352565b601f01601f19169290920160200192915050565b602081526000611d92602083018461237e565b6000602082840312156123cf57600080fd5b5035919050565b80356001600160a01b03811681146123ed57600080fd5b919050565b6000806040838503121561240557600080fd5b61240e836123d6565b946020939093013593505050565b60008060006060848603121561243157600080fd5b61243a846123d6565b9250612448602085016123d6565b9150604084013590509250925092565b60006020828403121561246a57600080fd5b611d92826123d6565b6000806020838503121561248657600080fd5b823567ffffffffffffffff8082111561249e57600080fd5b818501915085601f8301126124b257600080fd5b8135818111156124c157600080fd5b8660208285010111156124d357600080fd5b60209290920196919550909350505050565b8215158152604060208201526000611058604083018461237e565b6000806040838503121561251357600080fd5b61251c836123d6565b91506020830135801515811461253157600080fd5b809150509250929050565b634e487b7160e01b600052604160045260246000fd5b6000806000806080858703121561256857600080fd5b612571856123d6565b935061257f602086016123d6565b925060408501359150606085013567ffffffffffffffff808211156125a357600080fd5b818701915087601f8301126125b757600080fd5b8135818111156125c9576125c961253c565b604051601f8201601f19908116603f011681019083821181831017156125f1576125f161253c565b816040528281528a602084870101111561260a57600080fd5b82602086016020830137600060208483010152809550505050505092959194509250565b6000806040838503121561264157600080fd5b61264a836123d6565b9150612658602084016123d6565b90509250929050565b600181811c9082168061267557607f821691505b6020821081141561269657634e487b7160e01b600052602260045260246000fd5b50919050565b634e487b7160e01b600052603260045260246000fd5b634e487b7160e01b600052601160045260246000fd5b6000828210156126da576126da6126b2565b500390565b805169ffffffffffffffffffff811681146123ed57600080fd5b600080600080600060a0868803121561271157600080fd5b61271a866126df565b945060208601519350604086015192506060860151915061273d608087016126df565b90509295509295909350565b6000821982111561275c5761275c6126b2565b500190565b608081526000612774608083018761237e565b856020840152828103604084015261278c818661237e565b905082810360608401526127a0818561237e565b979650505050505050565b60007fffffffffffffffffffffffffffffffffffffffffffffffffffffffffffffffff8214156127dd576127dd6126b2565b5060010190565b600083516127f6818460208801612352565b83519083019061280a818360208801612352565b01949350505050565b60008251612825818460208701612352565b9190910192915050565b606081526000612842606083018661237e565b8281036020840152612854818661237e565b90508281036040840152612868818561237e565b9695505050505050565b60006001600160a01b03808716835280861660208401525083604083015260806060830152612868608083018461237e565b6000602082840312156128b657600080fd5b8151611d9281612307565b634e487b7160e01b600052601260045260246000fd5b6000826128e6576128e66128c1565b500490565b6000826128fa576128fa6128c1565b500690565b634e487b7160e01b600052603160045260246000fdfea26469706673582212202da9783e365d6b011349ee5c0036af98251a452f30265ccf856d66480e79b6a364736f6c6343000809003368747470733a2f2f697066732e696f2f697066732f516d646355526d4e316b4545744b676e626b564a4a3868726d73535748705a764c6b5267734b4b6f6957765739673f66696c656e616d653d73696d706c655f62756c6c2e6a736f6e68747470733a2f2f697066732e696f2f697066732f516d5258796669336f4e5a43756244786956467265336b4c5a3858654774367051736e4151525a37616b68534e733f66696c656e616d653d67616d65725f62756c6c2e6a736f6e68747470733a2f2f697066732e696f2f697066732f516d624b68425856576d777259735450465966726f52324e374e41656b414d78485556673243576b73376939716a3f66696c656e616d653d73696d706c655f626561722e6a736f6e68747470733a2f2f697066732e696f2f697066732f516d6478394878374643445a474578796a4c52367659636e75745552384b68425a426e5a6641504869556f6d6d4e3f66696c656e616d653d6265616e69655f626561722e6a736f6e68747470733a2f2f697066732e696f2f697066732f516d524a5646654d7274595332435556554d3263484a70425635615832787572706e73665a784c545451626944333f66696c656e616d653d70617274795f62756c6c2e6a736f6e68747470733a2f2f697066732e696f2f697066732f516d54564c79545375694b4755456d6238384267584733714e4338596770485a6946626a4872584b4833514845753f66696c656e616d653d636f6f6c696f5f626561722e6a736f6e",
  "devdoc": {
    "kind": "dev",
    "methods": {
      "approve(address,uint256)": {
        "details": "See {IERC721-approve}."
      },
      "balanceOf(address)": {
        "details": "See {IERC721-balanceOf}."
      },
      "getApproved(uint256)": {
        "details": "See {IERC721-getApproved}."
      },
      "isApprovedForAll(address,address)": {
        "details": "See {IERC721-isApprovedForAll}."
      },
      "name()": {
        "details": "See {IERC721Metadata-name}."
      },
      "owner()": {
        "details": "Returns the address of the current owner."
      },
      "ownerOf(uint256)": {
        "details": "See {IERC721-ownerOf}."
      },
      "renounceOwnership()": {
        "details": "Leaves the contract without owner. It will not be possible to call `onlyOwner` functions anymore. Can only be called by the current owner. NOTE: Renouncing ownership will leave the contract without an owner, thereby removing any functionality that is only available to the owner."
      },
      "safeTransferFrom(address,address,uint256)": {
        "details": "See {IERC721-safeTransferFrom}."
      },
      "safeTransferFrom(address,address,uint256,bytes)": {
        "details": "See {IERC721-safeTransferFrom}."
      },
      "setApprovalForAll(address,bool)": {
        "details": "See {IERC721-setApprovalForAll}."
      },
      "symbol()": {
        "details": "See {IERC721Metadata-symbol}."
      },
      "tokenByIndex(uint256)": {
        "details": "See {IERC721Enumerable-tokenByIndex}."
      },
      "tokenOfOwnerByIndex(address,uint256)": {
        "details": "See {IERC721Enumerable-tokenOfOwnerByIndex}."
      },
      "totalSupply()": {
        "details": "See {IERC721Enumerable-totalSupply}."
      },
      "transferFrom(address,address,uint256)": {
        "details": "See {IERC721-transferFrom}."
      },
      "transferOwnership(address)": {
        "details": "Transfers ownership of the contract to a new account (`newOwner`). Can only be called by the current owner."
      }
    },
    "version": 1
  },
  "userdoc": {
    "kind": "user",
    "methods": {
      "interval()": {
        "notice": "Use an interval in seconds and a timestamp to slow execution of Upkeep"
      }
    },
    "version": 1
  },
  "storageLayout": {
    "storage": [
      {
        "astId": 242,
        "contract": "src/Bull&Bear.sol:BullBear",
        "label": "_name",
        "offset": 0,
        "slot": "0",
        "type": "t_string_storage"
      },
      {
        "astId": 244,
        "contract": "src/Bull&Bear.sol:BullBear",
        "label": "_symbol",
        "offset": 0,
        "slot": "1",
        "type": "t_string_storage"
      },
      {
        "astId": 248,
        "contract": "src/Bull&Bear.sol:BullBear",
        "label": "_owners",
        "offset": 0,
        "slot": "2",
        "type": "t_mapping(t_uint256,t_address)"
      },
      {
        "astId": 252,
        "contract": "src/Bull&Bear.sol:BullBear",
        "label": "_balances",
        "offset": 0,
        "slot": "3",
        "type": "t_mapping(t_address,t_uint256)"
      },
      {
        "astId": 256,
        "contract": "src/Bull&Bear.sol:BullBear",
        "label": "_tokenApprovals",
        "offset": 0,
        "slot": "4",
        "type": "t_mapping(t_uint256,t_address)"
      },
      {
        "astId": 262,
        "contract": "src/Bull&Bear.sol:BullBear",
        "label": "_operatorApprovals",
        "offset": 0,
        "slot": "5",
        "type": "t_mapping(t_address,t_mapping(t_address,t_bool))"
      },
      {
        "astId": 1232,
        "contract": "src/Bull&Bear.sol:BullBear",
        "label": "_ownedTokens",
        "offset": 0,
        "slot": "6",
        "type": "t_mapping(t_address,t_mapping(t_uint256,t_uint256))"
      },
      {
        "astId": 1236,
        "contract": "src/Bull&Bear.sol:BullBear",
        "label": "_ownedTokensIndex",
        "offset": 0,
        "slot": "7",
        "type": "t_mapping(t_uint256,t_uint256)"
      },
      {
        "astId": 1239,
        "contract": "src/Bull&Bear.sol:BullBear",
        "label": "_allTokens",
        "offset": 0,
        "slot": "8",
        "type": "t_array(t_uint256)dyn_storage"
      },
      {
        "astId": 1243,
        "contract": "src/Bull&Bear.sol:BullBear",
        "label": "_allTokensIndex",
        "offset": 0,
        "slot": "9",
        "type": "t_mapping(t_uint256,t_uint256)"
      },
      {
        "astId": 1568,
        "contract": "src/Bull&Bear.sol:BullBear",
        "label": "_tokenURIs",
        "offset": 0,
        "slot": "10",
        "type": "t_mapping(t_uint256,t_string_storage)"
      },
      {
        "astId": 111,
        "contract": "src/Bull&Bear.sol:BullBear",
        "label": "_owner",
        "offset": 0,
        "slot": "11",
        "type": "t_address"
      },
      {
        "astId": 10483,
        "contract": "src/Bull&Bear.sol:BullBear",
        "label": "_tokenIdCounter",
        "offset": 0,
        "slot": "12",
        "type": "t_struct(Counter)2061_storage"
      },
      {
        "astId": 10486,
        "contract": "src/Bull&Bear.sol:BullBear",
        "label": "pricefeed",
        "offset": 0,
        "slot": "13",
        "type": "t_contract(AggregatorV3Interface)84"
      },
      {
        "astId": 10489,
        "contract": "src/Bull&Bear.sol:BullBear",
        "label": "interval",
        "offset": 0,
        "slot": "14",
        "type": "t_uint256"
      },
      {
        "astId": 10491,
        "contract": "src/Bull&Bear.sol:BullBear",
        "label": "lastTimeStamp",
        "offset": 0,
        "slot": "15",
        "type": "t_uint256"
      },
      {
        "astId": 10493,
        "contract": "src/Bull&Bear.sol:BullBear",
        "label": "currentPrice",
        "offset": 0,
        "slot": "16",
        "type": "t_int256"
      },
      {
        "astId": 10500,
        "contract": "src/Bull&Bear.sol:BullBear",
        "label": "bullUrisIpfs",
        "offset": 0,
        "slot": "17",
        "type": "t_array(t_string_storage)dyn_storage"
      },
      {
        "astId": 10507,
        "contract": "src/Bull&Bear.sol:BullBear",
        "label": "bearUrisIpfs",
        "offset": 0,
        "slot": "18",
        "type": "t_array(t_string_storage)dyn_storage"
      }
    ],
    "types": {
      "t_address": {
        "encoding": "inplace",
        "label": "address",
        "numberOfBytes": "20"
      },
      "t_array(t_string_storage)dyn_storage": {
        "base": "t_string_storage",
        "encoding": "dynamic_array",
        "label": "string[]",
        "numberOfBytes": "32"
      },
      "t_array(t_uint256)dyn_storage": {
        "base": "t_uint256",
        "encoding": "dynamic_array",
        "label": "uint256[]",
        "numberOfBytes": "32"
      },
      "t_bool": {
        "encoding": "inplace",
        "label": "bool",
        "numberOfBytes": "1"
      },
      "t_contract(AggregatorV3Interface)84": {
        "encoding": "inplace",
        "label": "contract AggregatorV3Interface",
        "numberOfBytes": "20"
      },
      "t_int256": {
        "encoding": "inplace",
        "label": "int256",
        "numberOfBytes": "32"
      },
      "t_mapping(t_address,t_bool)": {
        "encoding": "mapping",
        "key": "t_address",
        "label": "mapping(address => bool)",
        "numberOfBytes": "32",
        "value": "t_bool"
      },
      "t_mapping(t_address,t_mapping(t_address,t_bool))": {
        "encoding": "mapping",
        "key": "t_address",
        "label": "mapping(address => mapping(address => bool))",
        "numberOfBytes": "32",
        "value": "t_mapping(t_address,t_bool)"
      },
      "t_mapping(t_address,t_mapping(t_uint256,t_uint256))": {
        "encoding": "mapping",
        "key": "t_address",
        "label": "mapping(address => mapping(uint256 => uint256))",
        "numberOfBytes": "32",
        "value": "t_mapping(t_uint256,t_uint256)"
      },
      "t_mapping(t_address,t_uint256)": {
        "encoding": "mapping",
        "key": "t_address",
        "label": "mapping(address => uint256)",
        "numberOfBytes": "32",
        "value": "t_uint256"
      },
      "t_mapping(t_uint256,t_address)": {
        "encoding": "mapping",
        "key": "t_uint256",
        "label": "mapping(uint256 => address)",
        "numberOfBytes": "32",
        "value": "t_address"
      },
      "t_mapping(t_uint256,t_string_storage)": {
        "encoding": "mapping",
        "key": "t_uint256",
        "label": "mapping(uint256 => string)",
        "numberOfBytes": "32",
        "value": "t_string_storage"
      },
      "t_mapping(t_uint256,t_uint256)": {
        "encoding": "mapping",
        "key": "t_uint256",
        "label": "mapping(uint256 => uint256)",
        "numberOfBytes": "32",
        "value": "t_uint256"
      },
      "t_string_storage": {
        "encoding": "bytes",
        "label": "string",
        "numberOfBytes": "32"
      },
      "t_struct(Counter)2061_storage": {
        "encoding": "inplace",
        "label": "struct Counters.Counter",
        "members": [
          {
            "astId": 2060,
            "contract": "src/Bull&Bear.sol:BullBear",
            "label": "_value",
            "offset": 0,
            "slot": "0",
            "type": "t_uint256"
          }
        ],
        "numberOfBytes": "32"
      },
      "t_uint256": {
        "encoding": "inplace",
        "label": "uint256",
        "numberOfBytes": "32"
      }
    }
  }
}